:020000040800F2
:10000000F8FF07202901020893C9060881C90608DC
:1000100095C90608A1C90608ADC906080000000078
:10002000000000000000000000000000B9C9060840
:10003000BBC906080000000031DA060869DA0608C4
:1000400001000208A5CA0608B7CA0608BDCA060804
:100050005D5107080100020839CA06083FCA0608B0
:1000600045CA06084BCA060851CA0608F9FB060825
:1000700009FC060819FC060829FC060839FC0608D4
:1000800049FC060859FC06080100020801000208A4
:10009000691F07086F1F0708751F070857CA06085A
:1000A000D1CA0608D7CA0608E9CA0608EFCA060870
:1000B000F5CA0608FBCA060801CB060881CB06086C
:1000C00087CB06088DCB060893CB060801000208F3
:1000D0000100020851CB060857CB06085DCB060885
:1000E0007BCA0608ABCA0608C9C906082DCB060894
:1000F00033CB06084BCB060845CB060869FC06083F
:1001000001000208E95A070809CB060801000208A5
:1001100063CB060869CB060821CB060827CB060867
:1001200079FC060889FC060899FC0608A9FC060863
:10013000B9FC06082D340708B1CA060801000208F8
:10014000010002080100020801000208BDC90608FA
:10015000C9FC0608D9FC0608E9FC06086FCB0608AE
:100160000100020801000208010002080100020863
:10017000010002080100020801000208000000005E
:10018000010002080100020875CB06087BCB0608B7
:100190000100020801000208010002080100020833
:1001A0000100020801000208010002080100020823
:1001B00001000208010002080100020899CB0608AC
:1001C0009FCB0608010002080000000001000208A1
:1001D00001000208010002080100020801000208F3
:1001E00001000208010002080100020801000208E3
:1001F0000100020801000208006870470B0A017044
:1002000043700B0C090E8370C1707047036A02398A
:10021000023B8B4283BFC389406B01FB030000207C
:100220007047034600F10B010020C20142EA500270
:1002300013F8010B50FA82F28B42D0B2F5D170471D
:1002400037B50D46044620B9092000232B6003B0C2
:1002500030BD0368002BF7D05A79002AF4D081888A
:100260005A899142F0D118680DF10702062102F077
:10027000AFFA9DF8073003F00103034313F0FF00CA
:10028000E2D12368E2E738B5C3790446C3B100F18F
:100290003C05826B01230068294602F084FA88B984
:1002A000A16BE36A626ACB1AE071934208D2A37928
:1002B000022B05D10A4401232946206802F073FA73
:1002C000002038BD0120FCE7F8B50446FFF7DBFF4E
:1002D0000546002842D16379032B37D1277A012FB5
:1002E00034D104F13C0601464FF40072304661F00F
:1002F000FBF855234122722184F83A32AA2304F5EF
:10030000097084F83F2084F83B32522384F820128D
:1003100084F83C3084F83D30612384F8211284F85D
:100320003E3084F82332A16984F82222FFF766FF69
:10033000616904F50A70FFF761FFA26A3B46314626
:1003400001322068A26302F02EFA25720022206892
:10035000114602F03DFA003818BF0120F8BD2DE922
:10036000F0470026D0F8009007460C468E7583694A
:10037000002B7DD0C36A01335FD1F96900234D1E84
:10038000184615F8012F0130202A0DD0052A08BF84
:10039000E522092805D10B2B9FBFE6182E27013334
:1003A0007772E618013372720B28EAD1E218002046
:1003B0005072A27D002A50D1002B45D004F10803D1
:1003C00008255A78581C002A54D11B1B083B3EE0D4
:1003D000B8F1000F05D100F520539BB2B3F5006FC3
:1003E00013D340F2B51140EA084043F0EFFEFF2876
:1003F000C5F1FF0A19D9BAF1010F21D96319020A0F
:10040000D8759A7502231D44002002368046D9F81B
:100410001030985B0028DBD1B8F1000F4FF00003DB
:1004200018BF00252544AB75A7E748B1BAF1000F06
:1004300008D0631998750123E5E7B0463546E6E72D
:100440000025E9E75546E7E73F23A3750123234449
:1004500000229A750B7B03B96372CB7A01F11C0001
:100460002372FFF7C9FE2060CB8AE3800B8BA38049
:10047000BDE8F0872E2A134609D0413A192A03D83D
:100480000A7B154200D020334373034699E71025B9
:10049000FAE7C2F307238A76CB764379032B01BFB1
:1004A000120C0A75120A4A75704738B5836B0446F8
:1004B0000D468B420FD0FFF7E6FE58B901232A46BE
:1004C00004F13C01206802F05FF910B101204FF007
:1004D000FF35A56338BD0020FCE7000038B50023D8
:1004E0000546C3714FF0FF338363FFF7DEFF044619
:1004F00008BBB5F83A224AF655239A421DD195F821
:100500003C2002F11803DBB2012B01D9EB2A16D1F2
:1005100003220C4905F1720061F012F848B105227E
:10052000094905F18E0061F00BF8041E18BF012483
:100530006400204638BD0424FBE70324F9E70224C5
:10054000F7E700BF0FBF070813BF0708F0B54379EF
:1005500087B0044601F0FE058BB10DF107020621BC
:10056000006802F035F99DF80730DE0707D40DB1B9
:100570005C0702D4002007B0F0BD0A20FBE700238F
:100580000DF1070205212068637102F021F99DF841
:100590000730D80700F1EF800DB15907EDD40021E5
:1005A0002046FFF79BFF0228034603D0012824D8EA
:1005B000257975B302AA04F2022304F242211746F8
:1005C00013F8040C10B11846FFF716FE103342F86A
:1005D000040B8B42F4D1267906B1013E57F8265020
:1005E0007DB129462046FFF779FF0346227952B9AB
:1005F000012B0ED90136032EF0D9042B07D101208F
:10060000B9E70323F2E7042BF9D0012B01D90D2020
:10061000B1E7B4F84730B3F5007FF8D1B4F8521021
:1006200021B904F16000FFF7E7FD014694F84C3072
:1006300061625A1EA371012AE9D894F84960E681E3
:10064000002EE4D0721E3242E1D1B4F84D703A0768
:10065000A781DCD1B4F84F0018B904F15C00FFF7B2
:10066000CBFDB4F84A20002AD1D001FB03FE02EBF7
:10067000171CF4446045CAD3A0EB0C00B042B0FB99
:10068000F6F3C4D33D488342C1D84FF6F570834298
:100690005FD840F6F576B3428CBF022601260233BE
:1006A0002A4405EB0C00032E2362A562E26260631C
:1006B00051D1B4F866203A43A9D19B0004F16800F7
:1006C000FFF79AFD03F2FF132063B1EB532F9ED384
:1006D0004FF0FF33032EC4E905334FF0800323723C
:1006E0002BD1B4F86C30012B27D1691C2046FFF7C1
:1006F000DCFE10BBB4F83A224AF6552320729A4227
:100700001BD11F4B04F13C00FFF776FD984214D13A
:1007100003F1FF5304F50870FFF76EFD03F5005376
:100720002033984209D104F50970FFF765FDA061F7
:1007300004F50A70FFF760FD6061124A6671138864
:1007400001339BB2138063810F4B23610023E3616C
:1007500010E70326A3E7002F3FF459AF022E02EB68
:100760000E004FEA43021BBFD21803F001031346E9
:1007700003EB5203A6E70320FDE600BFF5FFFF0FE2
:10078000525261417E4502207E43022001292DE91B
:10079000F84305460C4616466DD9036A8B426AD962
:1007A0004379022B3ED0032B4ED0012B63D101EBBA
:1007B0005107C16A01EB5721FFF777FE10B1012005
:1007C000BDE8F88314F0010405F13C0807F10109C4
:1007D000C7F30807F3B228461FBF18F8072002F036
:1007E0000F0242EA0313DBB208F807300123E96A7B
:1007F000EB7101EB5921FFF758FE0028DFD1C9F357
:1008000008023CB1C6F3071608F802600123002075
:10081000EB71D5E718F80230C6F3032623F00F0377
:100820001E43F1E7C16A01EB1421FFF73EFE0028E9
:10083000C5D1640005F13C0304F4FF741E551A1978
:10084000C6F307265670E1E7C16A01EBD411FFF742
:100850002CFE0028B3D1A40005F13C0304F4FE747F
:1008600023441846FFF7C8FC0146184666F31B01EF
:10087000FFF7C4FCCAE70220A2E7F8B505460E461A
:10088000FFF701FD0446A0B905F13C0731462846B3
:100890004FF40072FFF7BAFC21460646A8633846BB
:1008A00060F022FEEB899C4205D3EB891C1B18BF2C
:1008B00001242046F8BD012332193946286801F089
:1008C00072FF0028F1D10134ECE703284B8B04BF01
:1008D0008A8A43EA0243184670470129F8B506465A
:1008E0000C464ED9036A99424BD24379022B29D048
:1008F000032B34D0012B44D101EB5105C16A01EB2C
:100900005521FFF7D2FD10B14FF0FF30F8BD6F1C3D
:10091000C5F30805F16A3046354401EB572195F8D7
:100920003C50FFF7C2FD0028EED1C7F3080737445B
:1009300097F83C3045EA0320E3074CBF0009C0F3B9
:100940000B00E3E7C16A01EB1421FFF7AEFD0028BD
:10095000DAD1640004F4FF743444A08FD6E7C16A8E
:1009600001EBD411FFF7A1FD0028CDD1A40006F1C1
:100970003C0004F4FE742044FFF73EFC20F070407D
:10098000C4E70120C2E7F8B50C46064611460568E3
:10099000012C2BD92B6AA34228D92AB14FF0FF3260
:1009A0002846FFF7F3FE38B9214630682746FFF79F
:1009B00094FF044608B90020F8BD012816D0431C56
:1009C00016D0002239462846FFF7E0FE0028F3D172
:1009D0002A6AAB69911E8B4205D20133AB612B7A37
:1009E00043F001032B72A242DED8E4E70220E3E7E2
:1009F0000120E1E72DE9F843814605680F4649B932
:100A00006E69C6B12B6AB34298BF0126AB69A3B920
:100A1000002406E02846FFF760FF0128044603D8BB
:100A200001242046BDE8F883421C54D02B6A83423F
:100A3000F7D83E46EAE70126E8E7BE4216D12B6A20
:100A4000741CD9F800009C4228BF02242146FFF7FD
:100A500044FF0128E4D0431C3DD0F0B1D5F8148008
:100A6000B8F1010F02D92B6A434500D8B04644467D
:100A700001342B6AA34203D8B8F1010FC8D0022475
:100A80002146D9F80000FFF728FF40B10128C7D060
:100A9000013020D04445EBD1BAE7002CE6D04FF02E
:100AA000FF3221462846FFF771FE90B957B92A6AEE
:100AB000AB69023A6C61934210D92B7A43F001037F
:100AC0002B72AEE7224639462846FFF75FFE002824
:100AD000EDD00128A4D14FF0FF34A2E7013BAB6178
:100AE000EBE72DE9F8430769044689460668203795
:100AF000B7F5001F24BF00238361836973B1C7F377
:100B00000808B8F1000F39D101334169836141B957
:100B1000B389B3EB571F31D80023A3610420BDE88C
:100B2000F883F389013B13EA572327D13046FFF7B7
:100B3000D4FE0128054601D80220F0E7421C01D16D
:100B40000120ECE7336A834212D8B9F1000FE3D0F9
:100B500061692046FFF74EFF0546A8B10128EBD09A
:100B6000431CEDD001463046FFF787FE0028E7D151
:100B7000294630466561FFF749FBA0613C360020FD
:100B800027614644E661CAE70720C8E72DE9F04738
:100B9000FF2580460E460768A9460424D8F8181099
:100BA00019B9002C74D004245BE03846FFF77DFCB3
:100BB0000446002855D1D8F81C0001780029F2D04D
:100BC000C37AE52903F03F0388F806304FD02E2979
:100BD0004DD023F02002A2F1080CDCF1000242EB20
:100BE0000C02B24243D10F2B47D14C063DD5D8F869
:100BF000103001F0BF01457BC8F82C30437BAB427D
:100C000035D1428B9ABB03780D24D7F810C04FF62C
:100C1000FF7A23F04003DFF88090013B6343012417
:100C200019F801EB30F80EE024B3FF2B1FD82CF895
:100C300013E07446013301320D2AF1D102785206D5
:100C400005D524B1FF2B12D800222CF813204B1EFF
:100C50005FFA83F900214046FFF743FF044600286E
:100C60009CD00023C8F8183012E08945C6D04FF058
:100C7000FF09EFE7D645DED0F9E7B9F1000F03D160
:100C8000FFF7CFFAA84203D04FF0FF33C8F82C305B
:100C90002046BDE8F08700BF5AB10808B1F5001F33
:100CA000F8B506460C4601D30220F8BDCA06FBD1B2
:100CB000826805680161BAB96B79022B01D92B6B87
:100CC0009BB9AB89B3EB541FEED9286BC6E905205D
:100CD0000028E9D000EB54203C35C4F30804B0618F
:100CE00000202544F561E0E71346EF891A467F02AC
:100CF000BC42114603D22846FFF788FAE6E730687F
:100D0000FFF7EBFD431C024606D00128CCD92B6A25
:100D10008342C9D9E41BEBE70120C6E7F8B50E46CC
:100D2000002104460768FFF7B9FF68B90546A169C5
:100D30003846FFF7BAFB38B9E3691B78E52B00D0DA
:100D40001BB90135B54201D1F8BD05460121204648
:100D5000FFF7C7FE0028EAD0042808BF0720F3E702
:100D6000C16A4B1C2DE9F04104460568066918D19B
:100D7000E5274FF00108A1692846FFF796FBA0B9C7
:100D8000E3691F7085F807802369B3420DD20146DD
:100D90002046FFF7A6FE0028EDD0042808BF022059
:100DA00003E0FFF77BFF0028E2D0BDE8F081000000
:100DB0002DE9F04F002187B00446D0F800A0FFF7DE
:100DC0006DFF0546002840F08A804FF0FF084FF085
:100DD000FF3904F12003C346C4F82C900293A169A3
:100DE0005046FFF762FB0546002878D1E669377860
:100DF000002F78D0F27AE52F02F03F03A37103D0E1
:100E0000100758D50F2B02D0C4F82C904BE094F863
:100E10002B3059063DD47A0643D5236907F0BF0726
:100E200096F80D80E362737B43453CD1738B002BB6
:100E300039D135780D23DAF810B0012105F03F05DE
:100E4000013D5D43294B13F8012BB25A71B3FF2DBD
:100E5000059328D81046049243F0EAF96B1C0390DE
:100E60003BF81500019343F0E3F9039981421AD14D
:100E7000049A019D1146059B1D4A9A42E3D133789D
:100E80005B0603D511B13BF8153063B9013F5FFA3A
:100E900087FB00212046FFF724FE054600289ED050
:100EA0001DE0BB45BFD04FF0FF0BF2E74FF6FF70E0
:100EB0008242E1D0F7E7BBF1000F04D13046FFF7E3
:100EC000B0F940450BD094F82B5015F001059BD19B
:100ED0000B220299304660F033FB002894D128465B
:100EE00007B0BDE8F08F0425F9E700BF5AB1080844
:100EF00067B108082DE9F04F90F82B3089B005460E
:100F000013F0A00840F0E4800768396931F8182030
:100F1000002A6FD105F120060DF1140A96E80700AA
:100F20008AE80700DA0740F1DA8040224FF0010B2F
:100F3000844C85F82B20B446D7F810E0BBF1050FA0
:100F40009AE80700ACE803002CF8022B4FEA1242A3
:100F50008CF8002060D9AEF102005A4630F8021F2A
:100F600000294AD1D446072102F00F0E01390EF1B3
:100F70003000392888BF0EF137000F2A0CF8010D18
:100F80004FEA12104AD801F120027E206A4402F88A
:100F9000140C05F11F0000228446914206D01CF873
:100FA00001EF02F10109BEF1200F39D1072902F149
:100FB000010297BF01F1200C4FF0200C0131EC44ED
:100FC00098BF1CF814CC072A00F802C0EED92846B6
:100FD0000193FFF7EDFE019B814600287BD10BF1C9
:100FE000010BBBF1640FA6D14FF00709484609B0C9
:100FF000BDE8F08F08F1010888E74FF0100C01F010
:10100000010E49080EEB420212F4803F18BF624005
:10101000BCF1010CF3D1A1E75A46A3E70246A3E7CE
:101020004A46BAE729692846A1EB4411FFF736FE84
:1010300081460028DAD14FF6FF783046FFF7F1F805
:101040000190A9693846FFF730FA81460028CDD1D2
:10105000EB69E1B2019A4FF00D0CD7F810E05A732A
:101060004FF00F02DFF8E0A0DA724A1E18730CFB93
:1010700002F284469876D87640451AF8019B0CF126
:10108000010C18BF3EF8120003EB090B18BF013228
:1010900003F809004FEA1029002808BF4046BCF1B8
:1010A0000D0F8BF80190E7D1404502D03EF8122099
:1010B0000AB941F040011970012300212846FB7153
:1010C000FFF70FFD8146002890D1013CB9D11AE00D
:1010D0004FF006098AE7042888D185F82B309B0752
:1010E000284645BF08F10C040D230124B4FBF3F49A
:1010F00048BF01342146FFF711FE814600287FF4E6
:1011000075AF013C8ED1A9693846FFF7CEF981460B
:1011100000287FF46BAF01462022E86960F0E4F913
:10112000EB6903CE18605960B27831889A721981E0
:1011300095F82B30EA6903F0180313730123FB7150
:1011400054E700BF211001005AB108082DE9F04F03
:10115000036885B00646884601930B782F2B01D093
:101160005C2B09D142461378904601322F2BFAD0DE
:101170005C2BF8D0002301E0019BDB69B36098F899
:1011800000301F2B00F2FC8080230021304686F8BF
:101190002B3005B0BDE8F04FFFF780BD2F2811D0F0
:1011A0005C280FD07F2807D8A94A12F8013B1BB151
:1011B0009842FAD10620CFE0FF2DFBD02AF8150087
:1011C0000135E1E042461378904601322F2BFAD0E8
:1011D0005C2BF8D00024E5E0022D04D1BAF80230EF
:1011E0002E2B00F0E2800AEB450306E033F8022DD7
:1011F000202A01D02E2A02D1013D002DF6D14FF038
:1012000000030AEB45022AF81530002DD2D0002148
:101210003AF811000B4601312028F9D00BB92E28DD
:1012200002D144F00304E4B232F8021D2E2901D0A9
:10123000013DF9D14FF000094FF020324FF0080B7B
:101240004F4672623262C6F827203AF813005A1CE1
:10125000002800F0E480202804D02E2807D1AA42DC
:1012600000F0D18044F00304E4B21346EDE7D94521
:1012700080F0CC80AA4212D1BBF10B0F07D1C9E09C
:10128000AA4204D044F00304E4B200F2C880BF00D4
:101290002A464FF00B0B4FF00809FFB2E5E77F2815
:1012A00037D944F0020340F2B5110392DBB2029346
:1012B00042F08CFF10F0800FDDE902320FD000F019
:1012C0007F006449085C28B1634C14F8011B11B31A
:1012D0008842FAD143F003035F20DBB211E0FF281C
:1012E000F1D90BF1FF31894504D344F00304D94609
:1012F000E4B2BAE706EB0901040A09F1010981F831
:10130000204006EB09011C4609F1010981F8200083
:10131000ABE72346D8E7A0F1410189B2192902D8E9
:1013200047F00207EDE7A0F1610189B219299EBFDC
:10133000203847F0010780B2E3E7A5074BD407F058
:101340000103780744EA0313DCB248BF44F0080401
:1013500041E0002A08BF052005B0BDE8F08F5A071C
:101360004DD4B379DB064CD5019B03F13C013369C5
:10137000C3F308031944019B5879FFF7A6FAB0603C
:1013800033680025D3F810A018F8010B48B140F2DB
:10139000B51142F039FF00283FF40CAF1F283FF68B
:1013A000FDAE0424012D7FF417AFBAF800302E2BC8
:1013B0007FF419AF002306F11F022AF815309D4271
:1013C00094BF20212E2101330B2B02F8011FF6D1EF
:1013D00044F02004E4B2304686F82B40FFF7E8FCE6
:1013E00096F82B300028BAD00428B5D1990603F01E
:1013F0000402AED5002AC3D0802386F82B3000200B
:10140000AAE70520A8E7D945FFF436AFBBF10B0FDB
:101410007FF436AF44F003044FF00B0BE4B296F8C0
:101420002030E52B04BF052386F82030BBF1080FE0
:1014300004BFBF00FFB207F00C030C2B04D007F071
:101440000303032B7FF479AF44F00204C2E700BF2B
:1014500019BF0708DAB0080822BF07080021417148
:10146000FFF774B82DE9F04305468DB091469846D4
:101470000C46002900F0BA8003F03F073946FFF719
:1014800065F80646002840F0A98049466846009560
:10149000FFF75CFE20B99DF92B30002BB8BF06206A
:1014A00018F01C0F7ED000283FD0042840F0968012
:1014B0006846FFF71FFD002840F0908047F00807BE
:1014C000DDF81C9068794946FFF7FFF9804674F013
:1014D00047FB014609F10E002022FEF78FFE079B15
:1014E0002846DA7200220799FEF7D3FF079B0022F5
:1014F0001A775A779A77DA770123EB71B8F1000FF0
:1015000010D041466846D5F83890FFF73CFA0028DD
:1015100064D149462846FEF7C8FF08F1FF336B61E6
:1015200000285BD147F040070AE09DF8063013F031
:10153000110F41D118F0040F4FD118F0080FBFD18F
:10154000AB6B0799236261626879FFF7BEF9A0600F
:10155000034601F11C00FEF74FFE6A89B90680467A
:10156000A2804FF00002E060256027746274E2619F
:10157000626113D590B1EF8960617F0247451DD349
:101580000020A36150BBC8F308023AB119462846AF
:10159000FEF73CFE40B300EB5820E06130460DB052
:1015A000BDE8F083D0B99DF80630DA061AD418F0F9
:1015B000020FC5D0D807C3D507200FE01946206811
:1015C000FFF78BF901280346A8EB070803D9421C53
:1015D000D4D10120D5E70220D3E708200023064616
:1015E0002360DBE70420F9E70220F7E70926D5E7C7
:1015F0002DE9F04F9A4685B00023894603A9044699
:10160000CAF800301546FEF71BFE002840F0858022
:1016100094F81180B8F1000F1FD194F810B01BF0AE
:10162000010300937CD0E6686369F61AAE4228BFD6
:101630002E4696B16269039FC2F30803002B54D172
:10164000FB89013B13EA522B18D152B9A06801283B
:101650000CD84FF0020884F81180404605B0BDE870
:10166000F08FA1692068FFF738F9F0E7431C04D137
:101670000123DDF800806374EFE7A061A1693846BB
:10168000FEF7C4FD0028E4D0B6F5007F0BEB0002A6
:101690002AD3F9890BEB5620750A019288423868E3
:1016A00088BFA1EB0B0549462B4601F06DF80028D9
:1016B000DED1FB7963B1B86B019A801AA84207D2D8
:1016C0004FF4007207F13C0109EB40205FF0C8FEC7
:1016D0006D02DAF80030761BA9442B44CAF80030BA
:1016E00063692B446361A4E7E26165693846E16997
:1016F000C5F30805C5F50075B54228BF3546FEF7A8
:10170000D4FE0028B4D161693C372A464846C1F36B
:10171000080139445FF0A4FEDBE74FF009089CE7BD
:101720004FF0070899E72DE9F04F9A4685B000235E
:10173000894603A90446CAF800309046FEF780FDAA
:10174000002840F0A980677C1FBB237C9A0740F1EA
:10175000A580636913EB080F01D36FEA0308B8F1A2
:10176000000F12D06369039EC3F30802002A77D1E9
:10177000F589013D15EA53251ED173B9A16871B9E8
:101780002046FFF737F9014648B9237C43F0400370
:101790002374384605B0BDE8F08FA169F0E7012950
:1017A00002D102276774F4E74B1C01D10127F9E746
:1017B000A368A16103B9A160B26BE3699A4204D145
:1017C0003046FEF760FD0028F0D1A1693046FEF7F3
:1017D0001DFD0028E5D0B8F5007F05EB000B32D3E6
:1017E000F18905EB58204FEA58235A468842306861
:1017F00088BF4B1B4946019300F0D5FF05460028E2
:10180000D4D1B16B019BA1EB0B01994209D24FF4EA
:10181000007209EB412106F13C005FF021FE019BC3
:10182000F5715D02DAF80030A8EB0508A9442B44F5
:10183000CAF8003063691D44E3686561AB422CBFA0
:10184000E360E5608BE76169E368994206D330465F
:10185000FEF719FD0028A9D1C6F838B0C4F81CB0AD
:1018600065693046E169C5F30805C5F5007545456C
:1018700028BF4546FEF719FE002897D1636906F197
:101880003C002A464946C3F3080318445FF0E8FDCC
:101890004FF00103F371C5E709277AE7072778E7D7
:1018A0002DE9F34101A90546FEF7CAFC88BB2C7C53
:1018B00014F0400429D074F053F9019F8046296A3E
:1018C0003846FEF7F2FD0446F8B96E6AF37A3146FF
:1018D00043F02003F372AA682868FEF7DAFDE9688E
:1018E00006F11C00FEF78AFC414606F11600FEF7E1
:1018F00085FC0123B4743846F474FB71FEF7E4FCF4
:101900002B7C044623F040032B74204602B0BDE834
:10191000F0810924F9E713B50446FFF7C1FF28B9A0
:1019200001A92046FEF78CFC10B9206002B010BD62
:101930000920FBE770B50E468CB000210546FEF786
:1019400005FE044660B9314668460095FFF7FEFB88
:10195000044690B99DF92B30002B04DA029BEB6111
:1019600020460CB070BD9DF80630DB0609D50799FE
:101970006879FEF7AAFFE861F2E7042808BF0524AA
:10198000EEE70524ECE72DE9F04F0D460021D5B038
:10199000064629701746FEF7D9FD0190F0B90DF102
:1019A0000808D6F81C903C46C8F80060B9F1000F52
:1019B0001AD1BC4202D1013C2F232B552B46611B6F
:1019C0001A5D03F8012B5A189742F9D87B1E01358E
:1019D0001B1B0134A74238BF00231D44002301987C
:1019E0002B7055B0BDE8F08F20214046C8F81CB0E0
:1019F000C8F80890FFF752F9D8F81CB08246C0BB6F
:101A0000D8F818103046FEF750FD824688BB59467C
:101A10007079FEF75AFF5146C8F808004046FFF7B4
:101A20003DF9D8F80830D8F81C10824608BBC8F831
:101A30001C1040460021C8F80830FFF7A7F8D8F876
:101A40001CB0824680B959467079FEF73EFF484582
:101A50001ED051464046FFF744F8D8F80830D8F871
:101A60001C1082460028E2D0BAF1040F08BF4FF0E4
:101A7000020ACDF804A0B1E7013B0EAA02EB030C69
:101A80009CF816C000F801CD15E04FF0110AF0E700
:101A900040460EA9D8F80890FEF761FC0DF14D0004
:101AA000534610F8012F19460133002AF9D19C4200
:101AB000EBD328190B46002BDED1631E5C1A2B4496
:101AC0005B1A2F21197071E72DE9F7430D4601A923
:101AD0000446FEF7B5FB00287DD1667C002E51D16F
:101AE000E368AB4204D2227C12F0020F08BF1D460D
:101AF0000022636962619DB90020E26863699342D4
:101B000084BF227CE360C3F3080384BF42F0400239
:101B10002274002B36D0E369834233D0E06131E098
:101B2000DDF80480B8F80E707F027BB1013B6A1EBD
:101B3000B3FBF7F1B2FBF7F28A4207D37A42A1690D
:101B40001340ED1A63610029D6D002E0A16889B183
:101B5000A161BD42636920D863692B446361C5F309
:101B60000803002BC8D04046FEF750FB40B100EB05
:101B70005520C2E72046FEF73DFF0128014605D16A
:101B800002266674304603B0BDE8F083481C01D1DC
:101B90000126F6E7A160A161D5E73B44A5EB070963
:101BA0006361237C9A0706D52046FEF723FF05468E
:101BB00028B90146D0E72068FEF78FFE05466B1C6A
:101BC000E6D0012DDCD9D8F82030AB42D8D929464F
:101BD000A5614D46BDE70926D4E770B50546164612
:101BE0000C4629B30021FEF7B1FCC0B931462046AE
:101BF0002560FFF7ABFAA8B994F92B30002B07DB6F
:101C0000A379DB0612D56879E169FEF75EFEA06074
:101C10006B8900212046A380FFF740F808B100231C
:101C2000236070BD042808BF0520F8E70520F6E70B
:101C30000920F6E713B501A90446FEF701FB00B938
:101C4000206002B010BD73B50D4601A90446FEF731
:101C5000F7FA0146D0B935B92946204602B0BDE8A9
:101C60007040FFF71BB82046FEF790FF10F0FB0610
:101C70000AD129462046FEF772FB31462046FEF780
:101C800030FF042808BF002002B070BD0920FBE728
:101C900070B504468CB00E4600211546FEF756FC82
:101CA0000094044670B931466846FFF74FFA04467F
:101CB00040B99DF92B30002B07DB1DB12946684642
:101CC000FEF74DFB20460CB070BD0624FAE72DE967
:101CD000F84F884600210446FEF738FC054640B917
:101CE000D4F820A0A369AAF10202934204D8C8F84C
:101CF00000302846BDE8F88F6379012B17D1022701
:101D0000064639462046FEF7E8FD431C34D001283C
:101D100034D000B901360137236ABB42F1D8C8F884
:101D20000060237AA66143F001032372E1E7E16AD0
:101D30000746064604F13C0937B9204601F1010B7C
:101D4000FEF7B3FBE0B959466379022B0AD1E319D8
:101D50009B8F03B901360237BAF1010AC7F30807AE
:101D6000EAD1DCE709EB07000437FEF745FA30F06B
:101D7000704308BF0136EFE70125D0E70225CEE723
:101D80000546CCE7F0B50E4699B002210546FEF7B0
:101D9000DDFB044688B9314668460095FFF7D6F961
:101DA000044650B99DF82B3098063CD419063AD415
:101DB0009DF80670FA0703D50724204619B0F0BD38
:101DC00007996879FEF781FDFB0606460CD4684644
:101DD000FEF7C6FF04460028EFD1DEB9284619B049
:101DE000BDE8F040FEF770BAEB698342E4D02146CB
:101DF0000E900CA80C95FEF751FF04460028DCD18C
:101E000001460CA8FEF7C2FE04460028D4D00428E0
:101E1000D3D1DCE7024631466846FEF7B4FD0446FE
:101E20000028CAD1DAE70624C7E72DE9F0410E46BB
:101E300090B002210546FEF789FB044600286BD1CD
:101E4000314604A80495FFF781F90446002871D0B3
:101E5000042861D19DF83B1011F020016CD1684637
:101E60000095FEF7C7FD0646002859D0012859D035
:101E7000431C5C425C4173F073FE0746002C53D157
:101E800031462846FEF7F9FC044600284CD14FF0B5
:101E9000203305F13C04394605F15200C5F83D30C8
:101EA0003246C5F84130A5F845302E2385F83C3040
:101EB000102385F84730FEF7A1F921462846FEF7A2
:101EC000E8FA05F15C031A4651F8040B994242F80E
:101ED000040BF9D12E234FF00108069A284685F805
:101EE0005D30FEF7D6FA04A885F80780FFF702F800
:101EF0000446C8B90B98394632461630FEF77EF9CB
:101F00000B992846FEF7C5FA0B9B1022DA7285F86A
:101F10000780FEF7D9F90446204610B0BDE8F081ED
:101F20000724A8E70224A6E7002231466846FEF708
:101F30002AFDF1E70824EFE70624EDE72DE9F0415B
:101F40000D46A0B0022104461746FEF7FFFA00280E
:101F50007DD10023294608A808940A93FFF7F6F8D4
:101F6000002874D19DF84B3013F0A00F72D10F9D53
:101F70006E46DDF828802B4605F1200C18680833E2
:101F800053F8041C3246634503C21646F6D10DF1E0
:101F9000200CEE7A14ADBCE80F000FC5BCE80F00B2
:101FA0000FC59CE80F0085E80F00394614A8FFF71D
:101FB000CDF840B9169B434503D1189A0C9B9A4221
:101FC00003D0082043E0042841D114A8FEF792FF73
:101FD00000283CD11B990DF10D030DF11D0001F1FD
:101FE0000D0253F8045B834242F8045BF9D1188870
:101FF000012510809B789370F20658BF46F02006AA
:10200000CE72E571CB7ADB061AD5169B434517D005
:102010006079FEF75AFC01462046FEF7F7F80146C4
:10202000D0B12046FEF741FA88B994F85D302E2BE6
:1020300006D1169A04F15C012046FEF72AFAE571F2
:1020400008A8FEF78DFE10B92046FEF73DF920B036
:10205000BDE8F0810620FAE70220F8E72DE9F0411B
:10206000884692B002210746FEF770FA044698BBF4
:102070004FF020336D4608F1FF3806460193009378
:10208000CDF8073018F8010F1F281FD89DF8003031
:10209000E52B20D01EB1731EEA5C202A34D000212B
:1020A00006A806970891FEF7F9FD0446A0B901219C
:1020B00006A8FEF76BFD90BB0D9B3EB303CD1860E9
:1020C00059602988AA7819819A7221E040F2B511E5
:1020D00042F09AF820B90624204612B0BDE8F081FB
:1020E00042F0A6F840F2B51142F070F80028F2D0A4
:1020F0001D4A12F8013B13B19842FAD1EBE7FF28D1
:1021000022D80B2E29D1E6E71E46C3E7E5221A7036
:1021100001233846FB71FEF7D7F80446DCE70428B4
:10212000FBD1002ED8D0012106A8FEF7F7FD04460A
:102130000028D1D1202201460D985FF0D5F90D9BE2
:102140000822DA720D9BB9E7092EC4D806F14803BC
:10215000020A01366B4403F8482C06F148030136A5
:102160006B4403F8480C8DE7C8B008082DE9F04F20
:102170001C4600238BB0D0F80090437115460379BC
:102180000DF11F02039148460521029300F020FB48
:102190009DF81F30DE0700F15382580700F152828C
:1021A00008AA0321484600F013FB30B9089A531ED1
:1021B000B3F5004F01D21A4201D0012308935DB15B
:1021C000A5F500729F4B9A4203D913200BB0BDE8CE
:1021D000F08F6B1E2B42F8D1002C00F03582149B3F
:1021E000B3F5007FC0F03082029B002B00F09E8090
:1021F000012300222146484600F0C6FA002840F09C
:10220000BA82B4F8FE214AF655239A4201D00E2034
:10221000DCE7029B04EB031202F5D77392F8B221BC
:10222000002AF4D003F10800FDF7E6FF804603F131
:102230000C00FDF7E1FF8246BAF1150FCDF824A09E
:10224000E5D9B5F5813FC0D2039B13F00203059396
:10225000039B00F0828003F00703022B00F08280D2
:10226000039B03F00103C3F10303DBB2089A032BC2
:102270004FEA552502F1FF3CC2F1000E40F08A8082
:10228000002D51D14FEA5A416F4A012532F8023BE5
:1022900013B18B4268D900236C49BAFBF5F2960062
:1022A000A2F57F42F63A06F207268A424FEA562600
:1022B000ADD800224FF0200B0327019208EB0B0250
:1022C000032F0092019A08BF009806EB020108EB69
:1022D0000B02114401EB0C0202EA0E02A2EB010216
:1022E00006BF80189344B618C8EB051208BF0090CB
:1022F0000A4452458BD8019A032FAAEB0202A2EBA3
:102300000B02A2EB0602B2FBF5F2049232D14FF6B9
:10231000F5720499914200F2AF81002B7FF477AF00
:10232000012D7FF674AF6D082B46B5E709AA012190
:10233000484600F04DFA002840F01D82039A099BA0
:10234000110707D43E2B7FF662AF4FF03F08A3EB97
:10235000080A71E7DDF80880F9E7DA077FF535AF9D
:10236000022383E7032381E76D008FE7520017E024
:102370002A461AE0022F40F078814FF6F572049950
:1023800091422ED9002B40F06A816A00402A00F267
:102390005D811546002DEBD14FEA1A362C490122FA
:1023A00031F8023B0BB1B342E0D9BAFBF2F640F68A
:1023B000F5734FF0010B9E422B4615464FF020025D
:1023C00093BF06EB460602360227012794BF01366B
:1023D000760001929CBF7608033606F2FF16760A55
:1023E0006CE740F6F5720499914200F24581002BAA
:1023F0007FF40DAF6D00802DCCD908E7514604F174
:102400002000FDF7FBFE61E173F0AAFB014604F139
:10241000270004F12B02FDF7F1FEC6F30723A67592
:10242000E375802384F82430292384F82630094B6F
:1024300003F1100153F8040B8B4242F8040BF9D15D
:1024400083E100BF00FEFF00BAB00808FFFFFE0FE7
:10245000ACB0080849BF0708032F37D1012308F1A2
:1024600006022146484600F09EF94FF40072059995
:1024700020465FF039F8522341227221237004F57F
:10248000F47063706123E270A37084F8E731049BF9
:1024900084F8E41184F8E511591E84F8E62108F166
:1024A0000702FDF7ABFE02232146484684F8EC31D3
:1024B000012384F8FEB184F8FFA100F074F9012330
:1024C0002146484608EB030200F06DF9149A0021FA
:1024D00020466FF308025FF007F8032F6FD1F8234F
:1024E0002370FF236370A370E37023716371A37182
:1024F000E37123726372A3720F23E372149B4FEA9A
:10250000532A5645B3462146009A28BFD34648462B
:102510005B4600F048F90146002840F02C814FF45A
:10252000007220465EF0E0FF009BB6EB0B065B44BA
:102530000093E6D1019B032F08BF2B460193019D19
:102540002146009A4846554528BF55462B4600F07F
:102550002AF9002840F00F81009B2B440093019B37
:102560005B1B0193EBD1032F32D0099BB3F5803F66
:1025700030D2022F14BF01250425029B63B3002231
:1025800001232146484600F0FFF80246002840F0AB
:10259000F280029B04EB031383F8B251012321461E
:1025A000484600F000F9002840F0E5800022484647
:1025B000114600F00DF9003818BF012006E6012F82
:1025C0006E49204618BF6FF00701FDF717FE95E72B
:1025D0000C25D2E70625D0E7039B1B07E6D44FF472
:1025E00000720299204601265EF07EFF552384F892
:1025F000C2514146099D04F5E37084F8FE31AA23D7
:1026000005EB080284F8BF6184F8FF3143F6C1632B
:1026100084F8C061B2FBF3F2FE2384F8C52184F88C
:10262000C331930843F03F0384F8C431FDF7E6FD5E
:10263000294604F5E570FDF7E1FD3346029AAEE761
:102640000320C3E50A20C1E51120BFE5059B002B4F
:102650007FF418AE802A3FF6DAAD1546A5E6059A56
:10266000002A3FF4D4AD1D4616E640F6F573049AF1
:102670009A423FF6CCAD01274FF40072002120466C
:102680005EF032FF3E4B84F80EB0CBF3072B1A6896
:10269000657322605A6884F80FB062601A899B7A69
:1026A0002281A3720223237301232374FB1E18BF0C
:1026B0000123BAF5803F4FEA4303A374BFF49EAEF3
:1026C00084F813A0CAF3072A84F814A0F82341461B
:1026D00004F11C0063753F232376FF23A376FDF7E7
:1026E0008DFD032F7FF490AE73F03AFA014604F1AA
:1026F00043000122FDF782FD314604F12400FDF77D
:102700007DFD022384F83020062284F82C3000233B
:1027100084F8322004F1470284F82D3084F82E30FA
:1027200084F82F3084F8313084F83330802384F8F3
:102730004030292384F84230124B03F1100153F842
:10274000040B8B4242F8040BF9D119884FF0550B5A
:102750009B784FF0AA0A11804846937021460123C6
:10276000424684F8FEB184F8FFA100F01CF8059001
:1027700000283FF471AE012028E500BFF8FFFF00FC
:1027800029BF070835BF070810B50C4611461A4681
:1027900038B12346043041F061F9003818BF0120F8
:1027A00010BD0420FCE710B50C4611461A4650B186
:1027B0002346043041F078F910F11E0F05D000389F
:1027C00018BF012010BD0420FCE70220FAE700003A
:1027D00070B50C461546064600283ED001F00703AA
:1027E000284AD15C00293AD00022043041F088F90F
:1027F000062C32D801A353F824F000BF212800088A
:102800001B280008252800083B2800085B28000832
:10281000412800084128000806202BF037FB2860DB
:10282000002070BD062804D14FF400702880B060ED
:10283000F6E72BF02BFB80B2F8E701232B60EFE7E4
:10284000062801D0430806D1336AB3FA83F35B0943
:102850009B002B70E4E70123FBE70420E1E7062C53
:10286000FBD801A353F824F02128000819280008F8
:10287000292800083B2800085B2800084928000890
:1028800049280008B8AF0808022970B50446154663
:102890001E4613D15368012B0AD0022B0CD01BB952
:1028A0001168201DFFF710F9A3692B60002070BD8F
:1028B00081692B681944F4E70169FAE701290AD113
:1028C0000430FEF7EDFF0028F0D0084B1B5C4FF002
:1028D000FF303360EBE7042906D14368002BE5D0D5
:1028E0000430FFF718F8EEE71623F0E798B0080871
:1028F00037B51D46043001AB1446FEF714FF38B15E
:10290000064B1B5C4FF0FF342B60204603B030BDFC
:10291000019BA342F9D01C23F4E700BF98B008083C
:1029200013B51C46043001ABFEF762FE30B1044B18
:102930001B5C4FF0FF30236002B010BD0198FBE735
:1029400098B0080870B50C46054608462BF0EEF91D
:102950002346024602492846BDE8704001F060B8AF
:1029600004BF0708F8B5064610460F46002431F0AC
:102970009BFC2B49421E2B4812F8013FBBB92C206F
:102980002BF0C2F9054638462F1D31F08DFCE3B21D
:102990000246394606F14400FEF764FD0646B8B328
:1029A00028461DF095FC204B985D2AF0E9FB782B1A
:1029B000E2D8712B08D8612B25D0622B26D02B2B87
:1029C000DAD144F00304D7E7723B062BD4D801A533
:1029D00055F823F0F529000879290008F1290008A5
:1029E0007929000879290008FB290008012A000834
:1029F0000B49C1E744F00104BEE744F00A04BBE719
:102A000044F00604B8E744F01204B5E70146B3E722
:102A1000E30603D529693846FFF756F82846F8BD7E
:102A2000C8AF0808F8AF080898B008080000000010
:102A30002DE9F04F07291D4680462DED048B87B008
:102A4000B0EE408B9DF85030019115D8012906D980
:102A50003F2308F8013B002388F8003002E0019B87
:102A6000002BF8D1019B012B94BF0020012007B05F
:102A7000BDEC048BBDE8F08F18EE901A06460029D5
:102A800023DAB4EE400BF1EE10FA1ED6B1EE408B15
:102A90002D2306F8013BB0EEC87B02F0200A9FED23
:102AA000C86BB4EE467BF1EE10FA13DD4AF0490034
:102AB0004AF04E01F31C4AF04602B2700022307018
:102AC000A3EB080071701A70D1E7002BE3D006F871
:102AD000013BE0E7B4EE488BF1EE10FA06D74AF07E
:102AE0004E024AF04101F31C1046E6E7002D42F089
:102AF0002009B8BF0625B9F1670F02D1012DB8BF73
:102B00000125B5EE408BA6EB0807019BF1EE10FA0C
:102B1000A3EB070707F1FF3B40F09380B9F1660F85
:102B200075D16A1C66215A45A8BFFD1E00279FED7E
:102B3000A88B6A1C3B4625EAE575BC463C46B2EECE
:102B4000049BACEB07004FF0000B0290002A80F2D0
:102B50005281BBF1040F26DD771E4FF0300C387820
:102B60003A46013F2E28FAD0A0F1300EBEF1090FEF
:102B700040F27C8101321078302814D157782E2F02
:102B800040F08181662900F07E812D2B17705070F6
:102B900040F07781013C08BF2B2331468A42C0F0C8
:102BA0007A8131211170B9F1670F09D145B13246EF
:102BB000164612F8011D3029FAD02E2908BF1646F4
:102BC00003B3632C73704FF00A024AF0450ACABF80
:102BD0006423B11CF11C86F800A0C8BF94FBF3F37A
:102BE00094FBF2F0C8BF303302FB1044C8BFB3708F
:102BF00030340E4690FBF2F302FB1303303306F839
:102C0000023B4C700023A6EB080033702FE76A1DCF
:102C10005A45ACBFFA1F2A46B9F1650F4FF00007BD
:102C200022EAE27500F0D8803B463C469FED688B77
:102C3000B9F1670F00F0BA804FF0000C49466246C8
:102C40007DE718EE903AC3F30A52A2F2FF3307EE83
:102C5000103A9FED5D6BB8EEC77B27EE067BFDEE6D
:102C6000C77B17EE904AB7EE007BB4EEC78BF1EE50
:102C700010FA4BD507EE904A6242B2EE040BB8EE62
:102C8000E71B02925DF00CFD029A1446B4EEC08B75
:102C9000F1EE10FA15D4B9F1660F06D0B9F1670F4D
:102CA0001AD1042C18DC621E15446A1C5A45A8BFB0
:102CB000FD1E00276A1C3B4625EAE575BC466621D9
:102CC0003DE70134B2EE040B634201EE103AB8EE78
:102CD000C11B5DF0E5FCD9E7FA1FAA4214DCB9F18B
:102CE000670F01D0A7F10802B9F1650F88EE008BDC
:102CF000C4F1000722EAE2754FF02D0398D16A1C57
:102D00004FF0000C65211AE72A46EDE7631CB2EE8E
:102D1000040B01EE103AB8EEC11B5DF0C1FCB4EE3D
:102D2000C08BF1EE10FA15DAB9F1660F20D15C45CF
:102D300021DA2A1901325A4504DBABEB04039D1E4C
:102D400025EAE5752A19274625EAE575A4460132E4
:102D50000023B4E7A31C621CB2EE040B01EE103A90
:102D60000292B8EEC11B5DF09BFC029A1446D6E7B6
:102D7000B9F1650F09D1FB1FAB4203DCA7F10805D0
:102D800025EAE57527462B23B9E7B9F1670F28D166
:102D90006A1D5A45A8BFFD1FA54202DD631CED1A3E
:102DA000D0E72A46274625EAE5752B23002A1CDDB5
:102DB0002A464FF0000C6721C1E600BFAFF3008048
:102DC000FFFFFFFFFFFFEF7FFF799F501344D33FCB
:102DD00000000000000000001FED038B2B233C4689
:102DE0008DE727462A462B2322E701254FF0000CCA
:102DF00067212A46A3E6002F35DD07EE907AB2EE72
:102E0000040B0393B8EEE71BCDE904215DF048FC09
:102E10000599DDE903324FF0000BB4EEC08BF1EE03
:102E200010FA06D40BF1010B38EE408BBBF1090F01
:102E3000F3D1B4466AB102980BF1300EF8420CF8A7
:102E400001EB06D12DB14FF02E0E06F1020C86F8E3
:102E500001E0002F02F1FF3207F1FF376646D8BFCD
:102E600028EE098B72E6B7EE000BD4E7392802D0C2
:102E7000013010707FE6424587F801C07FF46FAEE5
:102E800079E6013489E6711C019FA1EB0800B84284
:102E900038BF0E4681E611F8010C01F801097DE604
:102EA000044608B531B1054B4A6C0360002309683C
:102EB0002DF08AF920461DF0BBF900BFDC2A080876
:102EC0002DE9FF4705461F46461801922AB1023AEE
:102ED000222A02D9364829F007FFB5422C4622D3D0
:102EE0004FF00008311B204601AA28F042FC2518AB
:102EF0000024A946B1454B4627D3B8F1000F00D0B6
:102F00006442640044F00104AB4204D01D46B54263
:102F10002B4641D347D02749019A27482DF014F971
:102F20003946FFF7BDFF15F8010B1EF0EBFA80469E
:102F30000028D2D123782B2B01D12C46D2E72D2B80
:102F4000CED12C464FF00108CCE719F8012BA2F1A5
:102F5000300ABAF1090F09D95F2ACBD042F020021A
:102F6000A2F161011929C8D8A2F1570A0199514566
:102F7000C3D9204637F028FF019B20B903FB04A4E6
:102F800094EA4402B6D54246711B03A803952EF07D
:102F900041FB039B0446B7E7187801351EF0B2FAEF
:102FA0000028B4D1B7E7204604B0BDE8F08700BFE1
:102FB000C89D0708DD9D07084C2A0808000000008E
:102FC0002DE9F04F2DED0C8B9FEDB19B85B04FF0AF
:102FD000000804464718B0EE49BBC1469FEDAECB92
:102FE0009FEDAFABCDE901231A9B0393BC4209D2FD
:102FF00020781EF087FA28BB23782B2B2BD10134A5
:10300000BC422ED3002025469FEDA1DB034602469D
:10301000844683460646BD4280F00481294611F865
:1030200001ABAAF1300EBEF1090F00F2E280022ED0
:1030300040F09680A04DAC4502DC0A2505FB0CEC67
:103040000D46E8E7B0EE498B0134B0EE489BCDE782
:103050004FF00108F9E72D2B03D101344FF001099E
:10306000CEE7237843F02003692B31D1A31C9F4284
:1030700040F24881637843F020036E2B40F0428198
:10308000A37843F02003662B40F03C81E31DE51C50
:103090009F421AD9E37843F02003692B15D1237995
:1030A00043F020036E2B10D1637943F02003692B8A
:1030B0000BD1A37943F02003742B06D1E37943F0BD
:1030C0002003792B01D104F108059FED778B14E0E3
:1030D0006E2B97D1A31C9F4240F21481637843F07A
:1030E0002003612B40F00E81A37843F020036E2B68
:1030F00040F00881E51C9FED6E8B019B7BB1BD42CA
:103100000DD22B7843F020036A2B08D1B7EE007B59
:10311000A54248F0020805F1010507FE088BB9F148
:10312000000F01D0B1EE488BA54200F0D480BD4223
:103130002C46C0F0C38040F0C880B8F1010F00F009
:10314000CA80B8F1000F00F0CD80B0EE481BB0EEA1
:10315000490B05B0BDEC0C8BBDE8F04F2BF0F0BE79
:10316000BEF1000F1FD0B4EECADBF1EE10FA1ADA8E
:10317000B2EE047BEAB9B2EE047B1A46B4EECADBC7
:1031800032BBF1EE10FA2FD507EE90EAB2EE046BE7
:10319000012EB8EEE77BADEE067BB0EE47DB64D1E7
:1031A000013813464CE70EB9013249E701330126D5
:1031B00046E7B4EECADBF1EE10FA07D5B0EE4B6B82
:1031C000ADEE076BB0EE46DB013AD3E70130FBE72B
:1031D000F1EE10FA06D5B0EE4B6B0138ADEE076B91
:1031E000B0EE46DB013AC9E7002E41D1013033464B
:1031F00026E78EB9BAF12E0FD9D04AF0200EBEF1D3
:10320000650F0BD18F4203D96E782B2E27D1A91CC5
:10321000B94260D0022613E7022EEED1BAF15F0F59
:103220003FF40EAFBBF1000F01D0CCF1000C024413
:10323000624412F59A7FDCBF02F233122DEE0CDBF2
:1032400012F1160F16D35342B2EE040B01EE103AF0
:10325000B8EEC11B5DF024FA8DEE008B4DE72D2EEC
:10326000D8D1A91C4FF0010BD2E713461646E7E66A
:1032700013469CE707EE902AB2EE040BB8EEE71B6C
:103280005DF00EFA20EE0D8B37E700BFAFF3008044
:1032900000000000000000000DC6402C18FA3100AC
:1032A0005A62D7D718E77469000000000000F07F69
:1032B000000000000000F87F646666062078013593
:1032C0001EF020F900287FF432AF029B1BB1B8F149
:1032D000000F3FF4BDAE124912482CF09FFE039937
:1032E000FFF7DEFD029B23B1B0EE480B9FED0A1BFA
:1032F0002FE7B0EE480B05B0BDEC0C8BBDE8F04FEE
:103300002DF06EB8019B002BE5D025469FED028B7A
:1033100005E700BFAFF300800000000000000000E0
:10332000E99D07084C2A0808084611465FF004BAD0
:1033300070B5054608460E465EF014F9044620B105
:1033400002466B68314628689847204670BD0000E9
:103350002DE9F74F8A469DF8301091460D9A11F0ED
:10336000DF0F0646A2EB09023BD030293BD1244FA8
:103370004FF0100813F0800539D002EBD2746510BD
:10338000A2EB6404002D39DDAB46D8454246736894
:103390003946A8BF5A46306801929847019AABEB6C
:1033A000020BBBF1000FF0DCB9F1000F05D04D446A
:1033B00073684A46514630689847002C0DDD254415
:1033C000A045C14673683946A8BFA1463068A4EB42
:1033D00009044A469847002CF2DC284603B0BDE8B1
:1033E000F08F084FC4E70CAF4FF00108C2E713F0AD
:1033F000010401D11546C5E71446D5E70025D3E7FA
:10340000BC190808CD1908082DE9F043064689B013
:103410000020119D9DF84880139F8DF80F000AB37E
:1034200081421ADA2D2249428DF80F20109A08ACF9
:103430000DF11009A2F10A008E46B1FBF3FC03FB6B
:103440001C126146092A8CBF1218303204F8012D73
:103450004C450ED07345EFD90BE0A80727D52B229A
:103460008DF80F200029E1D130230DF11F048DF8D4
:103470001F3015F040099DF80F301CD023B30122F6
:103480002B460DF10F013046013FCDE90082FFF7D9
:103490005FFF814608AA2B4621463046121BCDE924
:1034A0000087FFF755FF484409B0BDE8F0836A077D
:1034B000D8D52022D4E7002BECD004AA9442E9D935
:1034C00004F8013C013CE5E79946E3E72DE9F04FBC
:1034D000834691B0C8070D4691461E461A9C9DF83A
:1034E0006CA0DDE91C870BD4A90703D129687B4BAD
:1034F000994205D028462AF0C9FC450045F001054F
:1035000014F0810306D1BAF1300F03D1B845B8BF2A
:10351000B8461F4628462DF080FF002818DBA2077A
:1035200012D52B238DF820300DF12103E006F6B2E1
:103530001CD5B9F1020F0DD13020194601F8020B4C
:10354000701C58700B4611E0630701D52023E9E792
:1035500008ABEBE7B9F1080F60D130211970A10574
:1035600049BF06F10E01013359700233002108AA48
:1035700014F0200F0CA81970A3EB020309904FF070
:103580001000059314BF2C230B46012F8DF81F103C
:10359000C8BF44F04004029614F04002CDE90A018D
:1035A000CDE9033244D02B460BAA09A8CDE90091FE
:1035B0000AA92DF0FFFD037881462D2B06D18DF849
:1035C0001F3000F101090B9B013B0B93012F7EDDA6
:1035D0000B9D049BBD42B8BF3D462BB19DF81F30EB
:1035E00003B10135059B1D44A84524F0010A6BDD9C
:1035F00014F00104A8EB050567D1202301952246AC
:1036000037490093584623462546FFF7A1FE064654
:10361000049B54464FF0300ABBB937E0B9F1100FA4
:10362000A4D13020194601F8020B06F1170088E7F3
:1036300008AB0BAA0AA909A8CDE900932B462DF0E7
:10364000B9FD8146C2E700252E469DF81F305BB1CB
:10365000002301220DF11F01584608F1FF38CDE982
:103660000032FFF775FE0644059B63B1002301227B
:1036700008A95846CDE90032059AFFF769FE059B77
:103680000644A8EB0308012FD8BF474623460B9AF0
:1036900049465846CDE900A7FFF75AFE06444DB10A
:1036A00020230F4958460195009300231A46FFF73F
:1036B0004FFE064409980CAB984201D01CF008FE5E
:1036C000304611B0BDE8F08F00250026A0E7049B2E
:1036D000002BB8D11D461E464746D7E7B430080830
:1036E0000FCE07082DE9F043164698468BB00746E3
:1036F000B2070A4602A84FF0200154BFC6F3800368
:103700002B23DDF848905CBF5B01DBB20093139B79
:10371000FFF78EF9F305044610D5431C1F2B0DD877
:1037200000F1280200210DEB0204252204F8202CD0
:1037300003F128021C466A4402F8201C16F04005DA
:103740001DD09DF808302F2B4FF0000319D801220F
:1037500002A9384609F1FF39013CCDE90032FFF7F3
:10376000F7FD0DF109010546334622463846CDE9FD
:103770000089FFF7EDFD28440BB0BDE8F08302A9F6
:10378000F2E702A91D46EFE72DE9F04F074689B0A1
:10379000144600254FF00A080B461E4613F8012B6D
:1037A0000AB1252AF9D1B14207D2A6EB01097B68FB
:1037B00038684A464D44984731460B78002B00F054
:1037C0002781013120234FF0000A084610F8012B11
:1037D00032B12B2A2CD01FD8202A2CD0212A2DD030
:1037E0004FF000090E4611F8012BA2F13000092814
:1037F00027D92E2A47D172782A2A27D000220E46AE
:1038000011F8010BA0F1300CBCF1090F21D808FB15
:10381000020BABF13002F2E72D2A05D0302ADFD1BE
:103820004AF0400A134601E04AF0010A0146CCE79B
:103830004AF0020AFAE74AF0040AF7E74AF0080AEF
:10384000F4E708FB0922A2F13009CBE7023654F86D
:10385000042B22EAE27B32786C2A08BF01363178E9
:10386000002900F0D580782906D857290ED8472995
:1038700056D8442900F2C0807B680122314638685E
:103880000135984762E04FF0FF3BE4E7A1F15802B1
:10389000202AF1D801A050F822F000BFD939000841
:1038A0007938000879380008793800087938000834
:1038B0007938000879380008793800087938000824
:1038C000793800083539000857390008BD39000833
:1038D000F9390008F9390008F93900087938000881
:1038E00079380008793800087938000879380008F4
:1038F0007938000879380008793800082539000837
:103900006B390008793800089539000879380008C3
:10391000D93900087938000879380008D939000801
:103920005029A9D1CDF804A0CDE902396123009333
:1039300010235FE054F8042BCDE9003953463AB127
:10394000042235493846FFF703FD0544711C23E77F
:1039500005223249F6E754F8042B07A98DF81C20FC
:103960000122CDE900395346ECE707A954F8040BCE
:1039700004931DF0AAFBBBF1FF3F0146049B04D05A
:10398000079A934538BFCDF81CB0079ACDE90039A6
:103990005346D7E754F8041B0593084604915DF09D
:1039A000E1FDBBF1FF3F0246DDE9041302D05845BB
:1039B00028BF5A46CDE900395346C3E7CDE902395D
:1039C00061230122CDF804A000930A2354F8041BBC
:1039D0003846FFF719FDB8E74A1C21F00F01CDF872
:1039E00004A002F006020F39CDE90239C9B2C2F1D2
:1039F000100300910022E9E707345246384624F0CC
:103A00000704CDE9009BB4EC020BFFF76BFE9CE7CB
:103A1000284609B0BDE8F08F7B9807088098070812
:103A20000EB403B503AA52F8041B0192FFF7ACFED3
:0C3A300002B05DF804EB03B0704700002A
:020000040802F0
:10000000FEE700000F490020D1F8883043F4700368
:10001000C1F888300C4B1A6842F001021A609860EF
:100020001A6822F0847222F480321A60074A5A60F9
:100030001A6822F480221A60D8604FF000638B6047
:10004000704700BF00ED00E000380240103000248F
:1000500030B5002495B02F4D2C22214609A8C5F8B3
:100060009040039441F040FA2B6C4FF480004FF025
:10007000040C4FF4A05E43F080532B642B6C03F010
:1000800080530093009B244B1A6842F440421A604C
:1000900001221B680A9403F4404304940193019BDA
:1000A0004FF48033CDE9072310230F220B93022353
:1000B0000292D8221193CDE90D30092307A812939B
:1000C0004FF48053CDE90FC2CDE905E345F070FB55
:1000D00010B112484CF010F845F0DCFA08B11048A5
:1000E000F8E7109B30210F9A02A8DB00B3FBF2F374
:1000F000B3FBF1F201FB12321199003AB3FBF1F1BB
:1001000018BF01224DF0CCFD08B10648E2E715B05A
:1001100030BD00BF0038024000700040246A07086C
:10012000366A0708506A07080446DFF82CD00B49E6
:100130000B4A0C4B03E051F8040B42F8040B9A42B3
:10014000F9D300200849094A01E041F8040B914223
:10015000FBD320464CF024B9F8FF072090990908FA
:10016000000002209C000220004002206841032081
:1001700040F8044B40F8045B40F8046B40F8047B03
:1001800040F8048B40F8049B40F804AB40F804BBF3
:1001900040F804CB40F804DB68467047024B5A69CC
:1001A000026058610020704700400220024B5A69EB
:1001B00012685A61704700BF00400220024B9A69E2
:1001C000C0E900219861704700400220044A936909
:1001D0001968916110B15A6818461047704700BFFE
:1001E0000040022038B50446044DAB690BB1A34270
:1001F00000D338BD0120FFF7E9FFF6E700400220F9
:10020000C460056146618761C0F81C80C0F8209019
:10021000C0F824A0C0F828B0C0F82CD080ED0C8B1A
:1002200080ED0E9B80ED10ABC0F808E0FFF7B6BF85
:10023000124D6C6908B50CB94CF09EF86060204610
:10024000FFF7D0FF23686B612046C46805694669E3
:100250008769D0F81C80D0F82090D0F824A0D0F87E
:1002600028B0D0F82CD090ED0C8B90ED0E9B90ED3B
:1002700010ABD0F808E00120704700BF004002201A
:1002800010B50021044600F0EDFA18B914B120466B
:100290000CF016FD10BD002100F0E4BA10B50121EC
:1002A000044600F0DFFA18B914B120460CF008FD3E
:1002B00010BDFFF7E5BF10B501220C4600F0F6FBBC
:1002C00018B914B120460CF0FBFC10BD00F0EEBBD9
:1002D00000F0AEBB484308B50830FFF7DCFF40B183
:1002E000044A936A03B118600021C0E900139062C8
:1002F000083008BD00400220034678B153F8042CB2
:10030000083812B153F8081C116053F8083C13B1B7
:100310005A6000F08DBB024B9A62FAE7704700BF4B
:10032000004002202DE9F0414FF0030C00252A4C3B
:100330008646D4F8A802002101310EEB01039A0889
:1003400003F00303825C5B0042FA03F303F0030350
:10035000022BF1D0D4F8B402090100EB0E104FEAE1
:10036000910E61B300EB8E0E03681A0724D1D4F806
:10037000B422991A9A424FEA9116C1F301124FEA38
:10038000111119D8D4F8B87252009F4214D9D4F878
:10039000A8720CFA02F8BB5D43FA02F243EA0803C2
:1003A00002F00302012A07D13F2DBB5505F5B273B8
:1003B0000CD8013524F8131004307045D4D145B160
:1003C000013D05F5B27334F813E0B2E7C4F8C42276
:1003D000F2E7BDE8F08100BF0040022030B51C4CC0
:1003E0000122D4E9AC53C01AC109C0F302134FEA89
:1003F000101C9A406B5C4FEA9C0E23EA02036B547C
:100400008309D4F8BC220325B2EB901FD4F8A802CC
:100410000CF0030288BFC4F8BC32C15C52000CF17E
:10042000010C05FA02F30CF0030221EA0301530068
:1004300000F80E104FEA9C0ED4F8A80210F80E1027
:1004400041FA03F303F00303022BE7D030BD00BFF2
:100450000040022021F00F01154A38B50B1A154C47
:100460000546013BC4F8B812C4F8A802DB00A2FBA1
:1004700003235B0A9A00C4F8AC32A1EB8311013369
:1004800007321D44C4F8B41203EBD2020021C4F8B1
:10049000B05241F029F8002301214FF0FF322381AF
:1004A000A4F84813C4E9AF33C4E9D33238BD00BF60
:1004B000F32C23FA00400220024A138901331381EE
:1004C000704700BF00400220024A1389013B13819C
:1004D000704700BF00400220024B1889003818BF47
:1004E0000120704700400220F8B51B4D00222B89E7
:1004F00005F1080405F5FE76C5F84C230133C5F86F
:10050000C4222B8154F8043F1A0719D1D5F8B4221C
:10051000981A93424FEA9011C0F301124FEA10105B
:100520000ED3D5F8B8725200BB4209D2D5F8A872E2
:1005300017F801C04CFA02F303F00303012B02D0B9
:10054000B442DFD1F8BD032393404CEA030C07F813
:1005500001C0FFF7E7FEF3E70040022071B3F8B5F2
:100560000F46051F0024164E55F8043F1A0719D1EF
:10057000D6F8B422981A9A424FEA901CC0F301129E
:100580004FEA10100ED8D6F8B8125200994209D985
:10059000D6F8A8E21EF80C1041FA02F303F00303A8
:1005A000012B03D00134A742DED1F8BD03239340D1
:1005B00019430EF80C10FFF7B5FEF3E7704700BFC4
:1005C000004002202DE9F04F5A4D83B0D5F8C432D7
:1005D000D5F8AC02002B00F0AA8080000026C5F8F8
:1005E000C462002800F088800027BB0807F00302DF
:1005F000D5F8A81204465200CB5C134103F0030364
:10060000032B67D001378742EFD3D5F8C432002BD4
:10061000E5D1D5F8C032A3426CD25C1C4FF0000B80
:10062000DC465F46D5F8A8024FEA970807F00306B4
:1006300010F8082000EB9701760042FA06F303F069
:100640000303022B6FD0032B63D0012B3ED1D5F8CF
:10065000B0024FEAD70A07F0070910F80A3000EB9A
:10066000D70C43FA09F0C00728D5D5F8B4023901F0
:10067000415800EB0710A1B16A4640F2EF310BF090
:10068000DBFC009B3BB10CF0BDFDDDE900010CF093
:1006900089FD0CF0CDFDD5F8B03203EB0A0C13F850
:1006A0000A30012202FA09F923EA09038CF8003022
:1006B000D5F8A83203EB080113F8082003234FF004
:1006C000010C03FA06F622EA06060E700137A7426D
:1006D000A8D313E038460137FFF724FED5F8AC0263
:1006E00080008742044680D3D5F8C432002B7FF4C3
:1006F00076AF8EE7002C91D14FF0000B2B890022B2
:10070000C5F8C0B2013BC5F8BC222B8103B0BDE8DF
:10071000F08F0223B34022EA030200F80820BB4610
:100720004FF0000CD2E7BCF1000FF8D0C6E7840010
:100730006FE700BF00400220044B00211A89C3F874
:10074000C41201321A81FFF73DBF00BF00400220F2
:10075000434B00212DE9F041D3E9AD420F460E464F
:10076000121BD3E9AA540B4641604FEA840C0C4695
:1007700081610260C0E90211C0E904119A0803F026
:1007800003080133AA5C4FEA4808ACEB030E42FAB7
:1007900008F2BEFA8EFE02F003024FEA5E1E012A44
:1007A00049D0022A39D0A2BB01369C4501F1010192
:1007B0001746866022D09A0803F00308AA5C4FEA25
:1007C000480842FA08F202F00302012A02DDBEF1F3
:1007D000000FD3D0A2F10108012FB8FA88F84FEA30
:1007E000581824D0022F02D1426901324261826935
:1007F000BA4238BF8761B8F1000F02D1BEF1000FD5
:10080000BCD0C2688A4238BFC1609C4519D0002163
:10081000B4E79C45CFD10322D7E701349C4507F1CB
:1008200001074460C7D1012F4FF00008DAD10269F7
:1008300001320261DBE701349C45446007D0174672
:10084000B9E724013601C0E90146BDE8F081076936
:1008500001370761876907B982610127D1E700BFC6
:10086000004002202DE9F84300F10F0636093FD081
:100870006E4C2389E3BBB4F848230D46E2BBD4F8A1
:10088000BC02D4F8AC72B84232D24FF0010ED4F8A8
:10089000A8C20138013F00216044CCF1010867443F
:1008A00018E04A1C964255D913F00C0F37D18A1C18
:1008B000964240F2AA8013F0300F36D101329642B0
:1008C00040F2A8803F2B23D8511C8E4240F2A780D3
:1008D000B8420AD008EB000910F8013F9A07E0D0AF
:1008E00013F00C0F16D10122E2E7BEF1000F23D066
:1008F00000231846BDE8F883D4E9D312914226D2EA
:10090000D4F8BC02D4F8AC72874215D99E46BEE733
:100910000021DDE713F0300F0CD10122CFE703F007
:100920003002B2FA82F25209CCE73F2B8CBF002191
:100930000121CDE70022C5E753F022F8D4F8BC022C
:10094000D4F8AC724FF0010EB842A0D3D0E753F008
:1009500017F894E74FEA8909A9EB0201012A01F18E
:10096000010704D109F101039B08C4F8BC32D4F893
:10097000C03207F0030EB80802314B454FEA4E0E65
:1009800038BF4B468945C4F8C0324FF0010303FA23
:100990000EF31CF800E043EA0E030CF8003012D30B
:1009A0004FF0020E01F003038808D4F8A8C2013109
:1009B0005B001CF8008089450EFA03F343EA080344
:1009C0000CF80030EED2D4F84C331201D4F8B482D3
:1009D000002133443E01C4F84C3308EB071318469A
:1009E00040F082FDEA07034683D50022D4F8B00226
:1009F000F90807F0070748F806200122445CBA40CE
:100A0000224342541846BDE8F8834FEA890909F1A8
:100A10000109A1E74FEA890909F102099CE74FEAB8
:100A200089090A4609F1030996E700BF0040022040
:100A3000034B1A8912B908B1FFF7D0BC704700BF49
:100A400000400220034610F00F001BD1164AD2F8D6
:100A5000B412994215D810B4D2F8B8429C420DD9BC
:100A60005B1AD2F8A842C3F301119A091B09A25CD0
:100A700049000A4102F00302012A05D05DF8044B47
:100A8000704770470020704701301A18910802F033
:100A90000302615C520041FA02F202F00302022AF0
:100AA000F2D00001EAE700BF004002202DE9F84F34
:100AB0000F460646002800F0CC80744D2C89002992
:100AC00000F09180002C40F09180D5F8B4020F31F5
:100AD000D5F8ACC2301A09094FEA8C0A030903F1B0
:100AE000010EBEEB8C0F80F0BA80A446D5F8A89218
:100AF0004FF001084FEA9E040EF0030B19F8044072
:100B00004FEA4B0B44FA0BF404F00304022C2AD0F6
:100B10002CB90CF1010C0CEB08048C4225D3414597
:100B20005DD067D3C4448C4524D2002A5ED0C2096C
:100B3000D5F8B01203F007033846895C194101F07B
:100B40000101FFF78FFE044600284FD04FEA08123C
:100B5000314640F085FC2B8913B93046FFF73EFC47
:100B60002046BDE8F88F08F101080EF1010EF245AC
:100B7000C0D1D4E75C1843449C4220D903F003025F
:100B800098084FF0020C0133520019F800709C4293
:100B90000CFA02F242EA070209F800200FD903F02A
:100BA00003029808D5F8A8720133520017F800E044
:100BB0009C420CFA02F242EA0E023A54EFD1D5F806
:100BC000C032A1EB080206EB081000219C424FEA5C
:100BD000021238BF1C46C5F8C04240F085FC3446BE
:100BE0002046BDE8F88F0CB9FFF7F8FB002420463B
:100BF000BDE8F88F5C184FF0030CA8EB010104EA84
:100C00000C07A008012904F101044FEA470719F86D
:100C100000E00CFA07F72EEA070709F8007010D079
:100C200003EB080E04F00302A708D5F8A83201343C
:100C30005200D95D74450CFA02F221EA0202DA553B
:100C4000F0D1D5F8BC328342C9D93446C5F8BC02CC
:100C5000C6E701463846BDE8F84FFFF703BE012955
:100C6000BDD029B14FF00108002A7FF460AFBDE785
:100C700003F003038009D5F8A81203225B009A4011
:100C80000B5C23EA02030B54DBE700BF00400220A9
:100C900010B58AB0044603A8FFF75AFD039A094924
:100CA000DDE9043000902046E2F7BAFE2046069CBB
:100CB000079ADDE90831CDE900140349E2F7B0FEF7
:100CC0000AB010BD54ED070878ED07082DE9F84388
:100CD000DFF8589107464749D9F8B422E2F7A0FE59
:100CE000D9F8AC1289006DD00025DFF8448115F0E9
:100CF0003F0633D005F003067600AB08D9F8A822EA
:100D0000D35C334103F00303022B63D0032B5FD08A
:100D1000012B4AD1D9F8B4222B01D25842455BD0DD
:100D2000354B9A425AD0354B9A425BD0344B9A425B
:100D300056D0344B9A4253D0334B9A4254D0334B13
:100D40009A4251D0324B9A4252D0324B9A424DD0B5
:100D5000314B9A4214BF68224D2227E0A9421ED986
:100D6000D9F8A8022C4602E001348C4208D0A2082F
:100D700004F00303825C5B0042FA03F39B07F3D0A9
:100D8000621B7F2A0BD992092449384624F03F057B
:100D9000E2F746FED9F8AC32B5EB830F12D22A0146
:100DA0001F493846E2F73CFEA7E72E221D49384688
:100DB000E2F736FE0135D9F8AC32B5EB830F4FEAD6
:100DC000830194D338461849BDE8F843E2F7B0BA36
:100DD0006D22EBE73D22E9E75422E7E74C22E5E705
:100DE0005322E3E74422E1E74122DFE74222DDE745
:100DF0004622DBE7C0ED0708CC310808882908083F
:100E0000243A0808543A080850260808C426080856
:100E1000302E0808F82E080860330808DCED0708B3
:100E2000F8ED070800EE0708BCED070800400220B7
:100E30009C3B08080346064A506A1A684168C1F399
:100E40001E018A4202D3521A1A6070470068F5E701
:100E500000400220014441F20553884204D398B275
:100E6000012838BF0120704703EB431310F8012B12
:100E70005340F2E7034B044A5A620022C3F80022AF
:100E8000704700BF004002200C8608082DE9F0479B
:100E900081460F46002942D0FFF7DCFF214B8246F6
:100EA0005C6A0CB9204636E094F907300025E66804
:100EB000002B06F1FF3616DB013604F11808B542A7
:100EC00015D32468EDE705EB06083A4648464FEA95
:100ED000580808F1060354F8231040F069FB002875
:100EE000CCBF45464646731B012BECD8E4E723698B
:100EF00033F815309A4510D163695B5D9F420CD180
:100F00003A46494658F8250040F01AFB28B960686F
:100F1000C0F31E002844BDE8F0870135CFE701206B
:100F2000F9E700BF004002202DE9F84380460F4654
:100F3000FFF7ACFF002840F09280FF2F03D949490A
:100F400049480BF0FCF8494D7E1CD5F80032ABB196
:100F5000D5E9811232448A422CD9024631441846DE
:100F6000FFF7B4F9D5F800320446E0B90246D5F8E7
:100F700008121846FFF7AAF9C5F80042802E344639
:100F800038BF80242046FFF786F90346C5F80002E3
:100F9000B8BB3046FFF77FF90346C5F8000278BBBF
:100FA00030460BF08DFED5F804223244C5F80422F9
:100FB000002BE3D0D5F8082241464FF000089C18DA
:100FC00032442046C5F808223A4640F049FA3946EC
:100FD000204604F80780FFF73DFF8146686AD0E9A4
:100FE0000262B2422BD376000A2E38BF0A26C6EB25
:100FF000C6001830FFF74FF948B9C5F80002CFE72F
:1010000034460022C5F80442C5F80822D2E700F1B0
:101010001802696A02EB86020160026102EB460275
:1010200042614A68C968C2F31E02C0F80C800A44D3
:10103000416862F31E014246C0E901166862016917
:10104000436921F81290911D9F546B6A43F8214027
:101050005868D968C0F31E0001311044D960BDE85A
:10106000F88300BF646A0708242B080800400220A8
:1010700010B5044640F076FA01462046BDE810401F
:10108000FFF752BF07B5019001A8FFF7D3FE019A01
:10109000036933F8120003B05DF804FB07B5019053
:1010A00001A8FFF7C7FE019B4269D05C03B05DF861
:1010B00004FB07B5019001A8FFF7BCFE019B0633B6
:1010C00050F8230003B05DF804FB13B5019001A8AC
:1010D0000C46FFF7AFFE019B4269D25C063350F825
:1010E0002300226002B010BD2DE9F8431D46002305
:1010F00007468846036016460B6013602B60154B4D
:10110000DFF854905C6A64B92B68326813442B6032
:10111000BDE8F883336812F8010B013303443360F0
:101120000DE04C45F0D03B6801333B60E268D8F8F5
:10113000003013446269C8F80030E368D1188A426D
:10114000E8D32046FFF77EFC2B68246803442B601D
:10115000D9E700BF004002200C860808F8B50B4B09
:101160000B4F5C6A0CB1BC4200D1F8BD04F118050C
:10117000E36805EB8306B54201D32468F2E755F82E
:10118000042B04490448E2F74BFCF4E7004002203A
:101190000C860808696A0708B419080830B50023E6
:1011A000202511F8012F0AB9027030BD120600F196
:1011B00001041FD513B12023037020460B78124A77
:1011C00003F07F0363B9013A12F8013F044601308E
:1011D00013F0800F0BD003F07F0323700123E0E7AF
:1011E00012F9014B002CFBDA013BDBB2EAE700F815
:1011F000013CE9E7012B04BF057020460B7800F89D
:10120000013B0223CDE700BF706A070838B5436889
:10121000054619440368994210D9037B1BB100218C
:1012200007480AF08CFF01F11004806824F00704DD
:1012300008342146FFF73FF82C60A86038BD00BF96
:10124000242B080870B504460E4611461546FFF7D4
:10125000DDFF31462A46D4E90130184440F030F928
:1012600063682B44636070BD70B546680446B14244
:1012700028BF31460D460121FFF7C8FFA368681C4F
:10128000721B5919184440F01BF96368A0680133B8
:101290002844636070BD012938B538BF0121044678
:1012A0000025084621606560FEF7EAFF2573A0600F
:1012B00038BD38B505460C460131FFF7ECFF6C60D0
:1012C00038BD00230160C0E9013201230373704778
:1012D00038B514460546FFF7DEFF024B2560636014
:1012E00038BD00BF45120208037B10B5044613B990
:1012F0008068FEF7EDFF0023A36010BD38B50546FA
:101300001020FEF7BDFF04462946FFF7C4FF204624
:1013100038BD10B5044648B1037B13B98068FEF7A9
:10132000D7FF2046BDE81040FEF7D2BF10BD000039
:1013300038B5037B04460D461BB1002106480AF070
:10134000FEFE016880682944FEF7B5FF2368A060AF
:101350001D441844256038BD242B080838B50446C0
:101360000D46FFF753FFD4E901301D441844656072
:1013700038BDD0E9002310B59A42044602D10121BC
:10138000FFF7D6FF0021D4E90132D154A06810BD87
:1013900010B50C460121FFF7E1FF047010BD7F2955
:1013A000F8B50C46CEB204D80121FFF7D7FF06707E
:1013B000F8BD06F03F06B1F5006FC1F3871546F0A2
:1013C000800607D265F03F050221FFF7C7FF467090
:1013D0000570EDE705F03F05B1F5803FC1F3073734
:1013E00045F0800508D267F01F070321FFF7B6FF1D
:1013F000457007708670DBE7A40C07F03F070421F7
:1014000064F00F0467F07F07FFF7A8FF8570047092
:101410004770C670CCE738B505460C46084640F024
:10142000A1F8214602462846BDE83840FFF70ABF2A
:1014300010B51446FFF718FF047010BD10B5144620
:10144000FFF712FF047010BD43688B422CBF591A7E
:1014500000214160704738B5044615460846626869
:101460008A4203D929448A4201D8606038BDA36802
:10147000521A1844194440F023F863685B1B6360F8
:10148000F4E70346007893F90020002A0ADA00F016
:101490007F004022104206D113F8012F02F0C00154
:1014A000802904D0704720EA02005208F2E702F0D7
:1014B0003F0242EA8010EFE7431C184601330278EE
:1014C00002F0C002802AF8D07047034600209942FB
:1014D00000D8704711F8012D02F0C002802A18BF11
:1014E0000130F4E703460144002099421A4600D82F
:1014F00070471278013302F0C002802A18BF013011
:10150000F3E700007F289DBF024B185CC0F340004A
:1015100000207047DE1908087F289DBF024B185C29
:10152000C0F3C00000207047DE1908087F289DBF67
:10153000024B185CC0F3800000207047DE190808D9
:101540007F289DBF024B185CC0F3801000207047BD
:10155000DE1908087F2809D8064B1B5C13F00C0F16
:1015600006D1A0F15F0358425841704700207047F0
:1015700001207047DE1908087F289DBF024B185CC8
:10158000C0F3001000207047DE1908087F289DBFB7
:10159000024B185CC0F3401000207047DE190808A9
:1015A000024608B5FFF7E8FF02EB401008BD08B59A
:1015B0000246FFF7EBFF404220F01F00104408BD39
:1015C0003038092884BF20F02000073870470246D1
:1015D0000144002010B5E524914203D8B0FA80F010
:1015E000400917E012F8013B30B103F0C003802B33
:1015F00011D10138C0B2EFE7BF2B09D9F72B09D8B9
:10160000DB0803F0060344FA03F303F00300E3E707
:101610001B06E1D510BD0020FCE7023981420B46D4
:1016200003D31A880239002AF8D00233181A40105E
:101630007047B2EB131F70B504464FEA13101BD965
:1016400001EB4001101A03F00F0326460246012A5F
:1016500001F102010CBF31F8025C51F8025C013A61
:1016600025FA03F526F8025BF1D104EB400434F8C7
:10167000023C03B9013870BD0020FCE7F0B5059CC1
:101680000025121B2E46AC420FD101EB4403174636
:1016900000EB4404411A9FB904EB420316B1023334
:1016A00024F81260181A4010F0BD31F8157033F8A4
:1016B00015C067443E4420F81560360C0135E2E75A
:1016C0001D88013F35445D522E0C0233E3E7F0B430
:1016D000049F00260D463446D11BB7420BD105EBC3
:1016E00047030A4600EB4707451B7AB907EB410160
:1016F000F0BCFFF792BF35F816C033F816206444EB
:10170000A41A20F8164024140136E6E71E88013A90
:1017100034445C5324140233E7E72DE9F043079C7B
:101720000239DDF828E0154684464FF6FF78A4EB31
:101730000209DDE9087655B900EB42011FB101232A
:10174000023120F81230BDE8F043FFF766BF31F8F0
:10175000024F013D4444264405EB0904A5422ABF3B
:1017600033F8024B4FF6FF744444744486EA040E87
:10177000360C17FA8EF74FEA144E2CF8027B3F0C0A
:10178000D9E7022938B538BF0221044680680D46E2
:1017900018B12368B1EB930F07D96900FEF78BFDF1
:1017A0002368A06065F39F03236038BD38B5044605
:1017B0000C20FEF765FD054623682278C3F39D00E3
:1017C00023F0030302F00102400013432B6063681F
:1017D0006B60FEF755FDA8602268A168C2F39D0208
:1017E00052003FF03DFE284638BD994210B511D356
:1017F00013D800EB410002EB410209B9084610BDC5
:1018000030F8023D32F8024D1B1B002B02DB04D1E5
:101810000139F2E74FF0FF30F1E70120EFE710B5B3
:10182000044638B18068FEF753FD2046BDE81040FD
:10183000FEF74EBD10BD70B50C4602210546FFF700
:10184000A0FF002C2B78B5BF012200226142214667
:1018500062F30003AA682B70012388B21446090CB6
:101860001E4622F8020B03F10103F6D16E602080C0
:1018700070BD0023C0E900338360704728B103784E
:101880009B0702D48068FEF723BD704738B5044635
:101890000D464968FFF775FF2A782378A06862F340
:1018A000000323706A68A96862605200BDE838408E
:1018B0003FF0D6BD0A4629B90178426062F30001C3
:1018C00001707047FFF7B7BF08B5FFF7D2FFBDE85B
:1018D0000840FFF7EFBF920042F0020210B402602E
:1018E00000225DF8044BC0E901211946FFF7E2BF71
:1018F000F8B514461D469DF8187004210646FFF7FA
:1019000040FF22462B4627B1002D0CDA624265EBE0
:101910004503317867F3000131700021716052EAAC
:10192000030102D1F8BD0027F3E7D6E901104C1CF2
:10193000746020F81120120C42EA03421B0CEEE7FF
:101940002DE9F84353EC102B1E46154603788046CC
:10195000F20F62F30003037047F6F07313EA1642C6
:101960000AD198F8003023F0010388F800300023F2
:10197000C8F80430BDE8F8839A42F2D0C6F30A539F
:10198000A3F2FF34002CECDB04D10121BDE8F843C5
:10199000FFF751BFA3F2EF37C6F31306332C4FEA1C
:1019A000271746F4801642DCC4F13402A4F1140374
:1019B000C4F1140406FA03F3D54026FA04F4D64021
:1019C0001D4325430024A14639464046FFF7D9FE72
:1019D000C8F80470B9F1000F06D04FEA490200219F
:1019E000D8F808003FF080FDA4B105FA04F2D8F859
:1019F000083023F81920C4F11003103409F101094B
:101A0000A3F12002DD4006FA04F426FA02F2DE40D9
:101A1000254315434B469F42ACD0D8F8082022F806
:101A200013502D0C013345EA0645360CF3E70C3410
:101A3000A3F2334304F00F044FEA2319C4E72DE95E
:101A4000F8438F18C2F35B0204460D46511C9846BA
:101A5000089EFFF796FE2378AC4600221FFA86FE0A
:101A600068F300032370BC456046626002D3401BEC
:101A7000BDE8F88301780CF1010CA1F13003092BCA
:101A800005D9A1F14103192B12D8A1F13703B342B3
:101A9000EDD2A06890468146B8F1000F0FD100EB5F
:101AA000420113B1023120F81230091A4A10DAE764
:101AB000A1F16103192BDAD8A1F15703E7E7B9F8CF
:101AC000001008F1FF380EFB013329F8023B1B0C14
:101AD000E2E7F8B5044615461E46C1B1531E4FF065
:101AE000FF371E44E90020460F310909FFF749FE80
:101AF0002378002123F00103616023700B4645B970
:101B0000A06800EB4101FFF788FD6060F8BD012788
:101B1000E8E700220F2B0ADC3078013D3E4400FA52
:101B200003F003F1080342EA000292B2F2D1A06886
:101B30000131103B00EB4100616020F8022CDEE730
:101B400038B5057804460B7805F0010203F001036F
:101B5000981A08D1D1E90132D4E90110FFF745FE06
:101B6000EB0748BF404238BD884210B5044601D05B
:101B7000FFF78CFE237823F00103237010BD884209
:101B800010B5044601D0FFF781FE63683BB12378AE
:101B9000C3F3000282F0010262F30003237010BD60
:101BA00088421FB5044601D0FFF770FE626862B933
:101BB00001212046FFF7E5FD0123A2681380636041
:101BC000237843F00103237010E02378D9070FD561
:101BD00023F00103237001230093A168ADF80E30B8
:101BE0000DF10E030846FFF772FD606004B010BDF2
:101BF000511C2046FFF7C5FD01230093ADF80E30C0
:101C00000DF10E03D4E901210846FFF737FD6060AE
:101C1000D6E74B682DE9F04705460E46144603B15A
:101C20002AB931462846BDE8F047FFF72FBE02F13A
:101C30000F014FEA111803EB1111FFF7A2FDA9687C
:101C400014F00F044FF0000CD6E9012308BF102454
:101C500008EB020703EB4203C4F1100407F1004054
:101C600001384FEA400901EB40001146864609BBA6
:101C70006FF001032CFA04FCC8F1010809F1020914
:101C80005A43831820F802C04FEA480203EB480386
:101C9000524218463FF028FC03464B4417B133F834
:101CA000022D9AB12B786F60327862F300032B70AB
:101CB000BDE8F08733F802AD01394AEA0C0C2CFA82
:101CC00004FA4FEA0C4C2EF802A9D0E7013FE5E7F1
:101CD0002DE9FF410D4649680646144601B132B967
:101CE0002946304604B0BDE8F041FFF7CFBDFFF70D
:101CF00048FDB768D5F8088023466A6838464146EB
:101D0000FFF797FC337870600246297861F300038F
:101D10003370DB070AD5002320096968ADF80E305F
:101D2000994201D0834204D181420AD804B0BDE86F
:101D3000F08138F813509DB101238142ADF80E3087
:101D400012D904F00F04012338F8101003FA04F438
:101D5000013C214206D1BDF80E30002BE6D003E055
:101D60000133DDE7ADF80E30012312B93B8073601B
:101D7000DCE7009339460DF10E033846FFF77EFC91
:101D80007060D3E72DE9F3410D465768D1F8048020
:101D900014463B46926806464146A868FFF725FD73
:101DA00001301FBF23462C4647461D4623782A781C
:101DB0005340DB0719D4791C3046FFF7E2FC6B680F
:101DC0000093AB68B068D4E90121FFF757FC70605D
:101DD0002378327800280CBF002303F0010363F35B
:101DE0000002327002B0BDE8F08139463046FFF79C
:101DF000C8FC6B680093AB68B068D4E90121FFF7B9
:101E000066FCE4E72DE9F3410F464E68D2F8048002
:101E100014463146926843460546B868FFF7E5FC2C
:101E200001301DBF23463C46B046012618BF1F4661
:101E3000237818BF00263A785340DB0719D508F1FC
:101E400001012846FFF79DFC7B680093BB68A868EA
:101E5000D4E90121FFF712FC686018B1207800F086
:101E6000010070402B7860F300032B7002B0BDE8D6
:101E7000F08141462846FFF784FC7B680093BB68ED
:101E8000A868D4E90121FFF722FCE5E74B682DE9BA
:101E9000F04F0C465168154685B08B42064621BF6F
:101EA0001946254613461C462B78DB0722D4237897
:101EB00013F001071ED1FFF764FCB068AD683B4624
:101EC000D4E9011C99420CD100EB4101FFF7A5FBBD
:101ED00000237060327863F30002327005B0BDE811
:101EE000F08F35F813203CF81340224020F81320DF
:101EF0000133E7E701313046FFF743FC2F782378C1
:101F000007F00109D5F804C087EA030147F3000789
:101F1000B06803F0010AC94343F30003A268834693
:101F200001F0010E41F300019BB289B200930291CE
:101F3000B9B267460191A968A1F102086168A1EBF5
:101F40000C0103918FB900EB4C01BEF1000F03D0DF
:101F50000123023120F81C30FFF75FFB706022780C
:101F60002B78C2F300021340B4E738F8021F013F98
:101F7000019B5940039B8944D9198F4225BF32F8F0
:101F8000021B009B00995940029B8A4409EA0A01FE
:101F90004FEA1A4A4FEA194959401EFA81F14FEAAD
:101FA000114E2BF8021BCDE72DE9F84F4B680D467B
:101FB0005168144606468B4221BF19462C461346EB
:101FC0001D462378DB0731D42B7813F001072DD180
:101FD000FFF7D7FBA06864683B46D6F808C0D5E990
:101FE000012EA41A9A4213D10CEB4203214600EBB6
:101FF0004202ACEB0000A1B903EB4403A3EB0C03DA
:1020000058103378706061F300033370BDE8F88FC7
:1020100030F813103EF8135029432CF813100133F5
:10202000E0E71588013915520232E4E70131304604
:10203000FFF7A7FB27782B784FF0010A616807F0BC
:102040000108B06803F00109A46843F30003834664
:102050009BB2A4F1020CD5E901E247F300050F465B
:10206000AEEB010EADB22FB900EB4101FFF7D5FA8F
:102070000121C6E73CF8024F013F6C40A0440EEB43
:102080000704A7422ABF32F8024B1C465C40A14419
:1020900048EA09044FEA19494FEA1848E4431AFA92
